:020000040000FA
:2000000000040020810A000015070000610A00001F0700002907000033070000000000001A
:20002000000000000000000000000000A50A00003D07000000000000470700005107000027
:200040005B070000650700006F07000079070000830700008D07000097070000A107000078
:20006000AB070000B5070000BF070000C9070000D3070000DD070000E7070000F1070000D8
:20008000FB070000050800000F08000019080000230800002D080000370800004108000031
:2000A0004B080000550800005F08000069080000730800007D080000870800009108000090
:2000C0009B080000A5080000AF080000B9080000C3080000CD080000D7080000E1080000F0
:2000E000EB080000F5080000FF08000009090000130900001D09000027090000310900004B
:200100003B0900001FB500F003F88DE80F001FBD00F0ACBC40F6FC7108684FF01022401C44
:2001200008D00868401C09D00868401C04D0086800F037BA9069F5E79069F9E7704770B5C7
:200140000B46010B184400F6FF70040B4FF080500022090303692403406943431D1B1046E5
:2001600000F048FA29462046BDE8704000F042BAF0B54FF6FF734FF4B4751A466E1E11E092
:20018000A94201D3344600E00C46091B30F8027B641E3B441A44F9D19CB204EB134394B229
:2001A00004EB12420029EBD198B200EB134002EB124140EA0140F0BDF34992B00446D1E9B5
:2001C0000001CDE91001FF224021684600F0F4FB94E80F008DE80F00684610A902E004C824
:2001E00041F8042D8842FAD110216846FFF7C0FF1090AA208DF8440000F099F9FFF78AFF38
:2002000040F6FC7420684FF01025401C0FD0206810226946803000F078F92068401C08D0CB
:200220002068082210A900F070F900F061F9A869EEE7A869F5E74FF080500369406940F683
:20024000FC71434308684FF01022401C06D0086800F58050834203D2092070479069F7E712
:200260000868401C04D00868401C03D0002070479069F9E70420704770B504460068C34DCD
:20028000072876D2DFE800F033041929631E2500D4E9026564682946304600F062F92A4681
:2002A0002146304600F031F9AA002146304600F057FB002800D0032070BD00F009FC4FF4FE
:2002C000805007E0201D00F040F90028F4D100F0FFFB60682860002070BD241D94E80700C9
:2002E000920000F03DFB0028F6D00E2070BDFFF7A2FF0028FAD1D4E901034FF0805100EBB5
:20030000830208694D69684382420ED840F6F87005684FF010226D1C09D0056805EB830519
:200320000B6949694B439D4203D9092070BD5569F4E70168491C03D00068401C02D003E045
:200340005069FAE70F2070BD2046FFF735FFFFF772FF0028F7D1201D00F0F7F80028F2D1B9
:2003600060680028F0D100F0E2F8FFF7D3FE00F0BFF8072070BD10B50C46182802D00120F6
:20038000086010BD2068FFF777FF206010BD4168054609B1012700E0002740F6F8742068E0
:2003A0004FF01026401C2BD02068AA68920000F0D7FA38B3A86881002068401C27D02068A5
:2003C000FFF7BDFED7B12068401C22D026684FF08050AC686D68016942695143A9420DD90E
:2003E000016940694143A14208D92146304600F0B8F822462946304600F087F800F078F809
:200400007069D2E700F093F8FFF784FEF6E77069D6E77669DBE740F6FC7420684FF01026A0
:20042000401C23D02068401C0CD02068401C1FD02568206805F18005401C1BD027683879C3
:20044000AA2819D040F6F8700168491C42D00168491C45D00168491C3ED001680968491C65
:200460003ED00168491C39D000683EE0B069DAE7B569DEE7B769E2E710212846FFF778FE60
:200480003968814222D12068401C05D0D4F8001001F18002C03107E0B169F9E730B108CA77
:2004A00051F8040D984201D1012000E000208A42F4D158B1286810B1042803D0FEE72846D8
:2004C000FFF765FF3149686808600EE0FFF722FE00F00EF87169BBE77169BFE7706904E05D
:2004E0004FF480500168491C01D000F0CBFAFEE7BFF34F8F26480168264A01F4E06111434F
:200500000160BFF34F8F00BFFDE72DE9F04117460D460646002406E03046296800F054F8B7
:20052000641C2D1D361DBC42F6D3BDE8F08140F6FC700168491C04D0D0F800004FF48051A1
:20054000FDE54FF010208069F8E74FF080510A69496900684A43824201D8102070470020B4
:20056000704770B50C4605464FF4806608E0284600F017F8B44205D3A4F5806405F580556A
:20058000002CF4D170BD0000F40A0000000000200CED00E00400FA05144801680029FCD089
:2005A0007047134A0221116010490B68002BFCD00F4B1B1D186008680028FCD000201060D2
:2005C00008680028FCD07047094B10B501221A60064A1468002CFCD0016010680028FCD0B9
:2005E0000020186010680028FCD010BD00E4014004E5014070B50C46054600F073F810B9F5
:2006000000F07EF828B121462846BDE8704000F007B821462846BDE8704000F037B80000B9
:200620007FB5002200920192029203920A0B000B6946012302440AE0440900F01F0651F848
:20064000245003FA06F6354341F82450401C8242F2D80D490868009A10430860081D016875
:20066000019A1143016000F03DF800280AD0064910310868029A10430860091D0868039A79
:20068000104308607FBD00000006004030B50F4C002200BF04EB0213D3F800582DB9D3F824
:2006A000045815B9D3F808581DB1521C082AF1D330BD082AFCD204EB0212C2F80008C3F846
:2006C00004180220C3F8080830BD000000E001404FF08050D0F83001082801D00020704723
:2006E000012070474FF08050D0F83011062905D0D0F83001401C01D0002070470120704731
:200700004FF08050D0F830010A2801D0002070470120704708208F490968095808471020CE
:200720008C4909680958084714208A49096809580847182087490968095808473020854954
:20074000096809580847382082490968095808473C20804909680958084740207D49096857
:200760000958084744207B49096809580847482078490968095808474C2076490968095839
:200780000847502073490968095808475420714909680958084758206E490968095808471E
:2007A0005C206C4909680958084760206949096809580847642067490968095808476820B7
:2007C00064490968095808476C20624909680958084770205F4909680958084774205D4960
:2007E00009680958084778205A490968095808477C2058490968095808478020554909686F
:200800000958084784205349096809580847882050490968095808478C204E490968095850
:20082000084790204B49096809580847942049490968095808479820464909680958084735
:200840009C204449096809580847A0204149096809580847A4203F49096809580847A8208E
:200860003C49096809580847AC203A49096809580847B0203749096809580847B42035499F
:20088000096809580847B8203249096809580847BC203049096809580847C0202D49096886
:2008A00009580847C4202B49096809580847C8202849096809580847CC2026490968095868
:2008C0000847D0202349096809580847D4202149096809580847D8201E490968095808474D
:2008E000DC201C49096809580847E0201949096809580847E4201749096809580847E82066
:200900001449096809580847EC201249096809580847F0200F49096809580847F4200D49DE
:20092000096809580847F8200A49096809580847FC2008490968095808475FF480700549EB
:20094000096809580847000003480449024A034B7047000000000020000B0000000B000057
:2009600040EA010310B59B070FD1042A0DD310C808C9121F9C42F8D020BA19BA884201D923
:20098000012010BD4FF0FF3010BD1AB1D30703D0521C07E0002010BD10F8013B11F8014BDB
:2009A0001B1B07D110F8013B11F8014B1B1B01D1921EF1D1184610BD02F0FF0343EA0322A5
:2009C00042EA024200F005B87047704770474FF000020429C0F0128010F0030C00F01B808B
:2009E000CCF1040CBCF1020F18BF00F8012BA8BF20F8022BA1EB0C0100F00DB85FEAC17CF1
:200A000024BF00F8012B00F8012B48BF00F8012B70474FF0000200B513469446964620396B
:200A200022BFA0E80C50A0E80C50B1F12001BFF4F7AF090728BFA0E80C5048BF0CC05DF8EE
:200A400004EB890028BF40F8042B08BF704748BF20F8022B11F0804F18BF00F8012B704784
:200A6000014B1B68DB6818470000002009480A497047FFF7FBFFFFF745FB00BD20BFFDE7E4
:200A8000064B1847064A1060016881F30888406800470000000B0000000B00001704000059
:200AA000000000201EF0040F0CBFEFF30881EFF30981886902380078182803D100E00000BC
:200AC000074A1047074A12682C3212681047000000B5054B1B68054A9B58984700BD00000E
:200AE0007703000000000020F00A000004000000001000000000000000FFFFFF0090D003EE
:20100000B00F002021AE010065B0000087AD010065B0000065B0000065B000000000000098
:20102000000000000000000000000000ADAE010065B000000000000065B0000065B0000015
:2010400015AF01001BAF010065B0000065B0000065B0000065B0000065B0000065B0000082
:2010600021AF010065B0000065B0000027AF010065B000002DAF010033AF010039AF0100E0
:2010800065B0000065B0000065B0000065B0000065B0000065B0000065B0000065B00000A8
:2010A00065B000003FAF010065B0000065B0000065B0000065B0000065B0000065B00000AE
:2010C00045AF010065B0000065B0000065B0000065B0000065B0000065B0000065B0000088
:2010E00065B0000065B0000065B0000065B0000065B0000065B0000065B0000065B0000048
:2011000065B0000065B0000000F002F819F077FE0AA090E8000C82448344AAF10107DA45C0
:2011200001D119F06CFEAFF2090EBAE80F0013F0010F18BFFB1A43F00103184770A2010059
:2011400090A201000A4410F8014B14F00F0508BF10F8015B240908BF10F8014B6D1E05D0CF
:2011600010F8013B6D1E01F8013BF9D1641E03D0641E01F8015BFBD19142E4D37047000068
:201180000023002400250026103A28BF78C1FBD8520728BF30C148BF0B6070471FB500F062
:2011A00003F88DE80F001FBD19F026BE70B51B4C05460A202070A01C00F0D7F85920A08042
:2011C00029462046BDE8704006F0FEBE06F00CBF70B50C461249097829B1A0F160015E29CC
:2011E00008D3012013E0602804D0692802D043F201000CE020CC0B4E94E80E0006EB8000DF
:20120000A0F58050241FD0F8806E2846B047206070BD012070470620704700000800002081
:201220001800002074AF01003249884201D2012070470020704770B50446A0F500002E4E0B
:20124000B0F1786F02D23444A4F500042948844201D2012500E0002500F043F848B125B9E6
:20126000B44204D32548006808E0012070BD002070BD002DF9D1B442F9D321488442F6D299
:20128000F3E710B50446A0F50000B0F1786F03D219480444A4F5000400F023F84FF0804122
:2012A00030B11648006804E08C4204D2012003E013488442F8D2002080F0010010BD10B5ED
:2012C00020B1FFF7DEFF08B1012010BD002010BD10B520B1FFF7AFFF08B1012010BD0020D5
:2012E00010BD084808490068884201D1012070470020704700C00100000000201C000020B0
:201300000800002058000020BEBAFECA10B504460021012000F041F800210B2000F03DF802
:201320000021082000F039F80421192000F035F804210D2000F031F804210E2000F02DF8F5
:2013400004210F2000F029F80421C84300F025F80621162000F021F80621152000F01DF824
:201360002046FFF723FF002010BDCC2101807047FFF72CBF1148704710487047104A10B5BE
:2013800014680F4B0F4A08331A60FFF721FF0C48001D046010BD704770474907090E0028B4
:2013A00004DB00F1E02080F80014704700F00F0000F1E02080F8141D7047000003F900428C
:2013C000100502400100000130B5FF4D0446062CA9780ED2DFE804F0030E0E0E0509FFDF32
:2013E00008E0022906D0FFDF04E0032902D0FFDF00E0FFDFAC7030BDF34810B5407E410898
:20140000F14800F11A0005D00DF043FBBDE8104006F07ABC0DF024FBF8E730B50446A1F19B
:2014200020000D460A2847D2DFE800F005070C19202532373C41FFDF3FE0207820283CD1F1
:20144000FFDF3AE0E0488078052836D02078242833D0252831D023282FD0FFDF2DE020783F
:2014600022282AD0232828D8FFDF26E02078222823D0FFDF21E0207822281ED024281CD03D
:2014800026281AD0272818D0292816D0FFDF14E02078252811D0FFDF0FE0207825280CD080
:2014A000FFDF0AE02078252807D0FFDF05E02078282802D0FFDF00E0FFDF257030BD1FB539
:2014C0000022ADF800200C88ADF802404B88ADF80430CA88ADF808208988ADF806100021F2
:2014E000ADF80A10ADF80C1080B14FF6FF700621844201D1ADF80210834201D1ADF80410C1
:20150000824203D14FF44860ADF8080068460DF0BEFB06F0F9FB04B010BD70B514460D46FA
:201520000646FFF788FE60B90DB1A54201D90C2070BD002409E000BF56F82400FFF77BFE45
:2015400008B1102070BD641CE4B2AC42F4D3002070BD2DE9F04105461F4690460E46002418
:201560000068FFF7B5FE30B9A98828680844401EFFF7AEFE10B11020BDE8F08128680028A5
:20158000A88802D0B84202D850E00028F4D00920F2E72968085DB8B1671CCA5D152A2ED011
:2015A0003CDC152A3AD2DFE802F03912222228282A2A31313939393939393939393922001E
:2015C000085D30BB641CA4B2A242F9D833E00228DDD1A01C085C88F80000072801D240075C
:2015E00001D40A20C8E7307840F0010015E0C143C90707E0012807D010E00620BCE70107F3
:20160000A1F180510029F5D01846B5E73078810701D50B20B0E740F0020030702868005DF8
:20162000384484B2A888A04202D2B0E74FF4485382B2A242ADD800209EE710B502785408C0
:2016400009D0012243F20223012C07D0022C0DD0032C13D10FE00020087005E08079032486
:20166000B4EB901F0AD10A70002010BD8079B2EB901F03D1F7E780798009F4D0184610BD72
:2016800008B500208DF800004F4890F8221051B190F8230002280FD003280FD0FFDF00BF3A
:2016A0009DF8000008BD48486946193001F0C6F90028F5D0FFDFF3E7032000E001208DF84A
:2016C0000000EDE738B50C460546694601F0B6F900280DD19DF80010207861F347002070EF
:2016E00055F8010FC4F80100A888A4F80500002038BD38B51378C0B1022816D033A46D4667
:20170000246800944C7905EB9414247864F34703137003280ED003F0FE0010700868C2F8E8
:2017200001008888A2F8050038BD23F0FE0313700228EED1D8B240F00100EEE702210EF0D3
:20174000BDBC38B50C460978222901D2082038BDADF800008DF8022068460DF0D9F906F056
:20176000D3FA050003D121212046FFF756FE284638BD1CB500208DF80000CDF80100ADF88D
:201780000500114890F82200022801D0012000E000208DF8070068460DF024FA002800D0D8
:2017A000FFDF1CBD2DE9FF478CB00025BDF8346082461C4690468DF81C50700703D5606864
:2017C000FFF739FD90B903E0A00100200302FF01FE4F4FF0010997F8220058B197F82300E9
:2017E000022807D16068FFF773FD18B1102010B0BDE8F087300702D5A089802815D87007A1
:2018000004D4B8F1000F01D0387E70B1E07DC0F300108DF81B00617D072041B1012906D0D9
:201820000229E4D00429E2D117E00720DFE78DF817908DF819908DF81580606878B107A9F0
:20184000FFF7FBFE0028D2D1606850F8011FCDF80F108088ADF8130005E00620C7E7CDF87C
:201860000F50ADF81350E07B0028F6D1207C0028F3D1607C0028F0D1A07C0028EDD1E07C0C
:20188000C006EAD18DF800A0BDF83400ADF80200A0680190A0680290CDA0D0E90010CDE9F3
:2018A0000A10E07C0AA901EB501000788DF80C00FFF7E6FE8DF80D009DF81C008DF80E00FA
:2018C0008DF818508DF816508DF81A5009A968460DF02CFA06F018FA89E7F0B58FB000243E
:2018E0008DF830408DF814408DF8344006468DF82840019402940394049419B10FC901AD3E
:2019000085E80F00B14DA878052801D004280CD101986968884200D120B90398E968884292
:2019200003D110B108200FB0F0BD1F273B460DAA05A903A8FFF70DFE0028F4D13B460AAA84
:201940000CA901A8FFF705FE0028ECD19DF81400C00701D00A20E6E7A88A410708D4A97D97
:2019600031B19DF82810890702D043F20120DAE79DF82810C90709D0400707D4288818B12E
:2019800044F25061884201D90720CCE78DF818408DF81960BDF80800ADF81A00019807905B
:2019A00006A80DF0CEF906F0AFF90028BBD18DF820408DF82160BDF81000ADF82200039851
:2019C000099008A80DF0DFF906F09EF90028AAD101AC2D1D94E80F0085E80F000020A2E712
:2019E00070B50646FFF7AAFE054606F06FFB040000D1FFDF6680207820F00F00801C20F031
:201A0000F000203020700320207295F83E006072BDE8704006F05EBB2DE9F04385B00400BE
:201A200000D1FFDF2078694E20F00F00801C20F0F0007030207060680178C91F14292AD25B
:201A4000DFE801F04DF3290AF3F33AF2292966F2F2F129F2F2F0EFF286883046FFF76EFEF8
:201A60000546304608F0BDF8C0B16068807985F83E0021212846FFF7D0FC304603F0FAF93D
:201A8000304604F0ADFB3146012012F047F9A87F20F01000A87705B0BDE8F083207820F07F
:201AA000F0002030207003202072668060688079607206F00FFBDCE785882846FFF73EFEB8
:201AC00000B9FFDF60688078012800D0FFDF6068817905B02846BDE8F04308F04ABA868811
:201AE0003046FFF72BFE050000D1FFDF06F0F2FA60683146C0882881606800896881606889
:201B00004089A881012012F009F90020A875C2E7807828B10228BED03C28BCD0FFDFBAE7D0
:201B200006F0D8FA6568A879AD1C00B9FFDFF778B5F80290B046384606F05FF8060000D149
:201B4000FFDF0022022148460EF0AFFA040000D1FFDF22212046FFF760FCA17F012060F3EB
:201B60000101A177298B2181698B6181A98BA18184F822708DF80800B0680090F06801909D
:201B80006A46032148460EF090FA00B9FFDFB088ADF81000B0788DF8120004AA05214846B6
:201BA0000EF083FA00B9FFDFB088ADF80C00F0788DF80E0003AA042148460EF076FA00B9A8
:201BC000FFDF062105F1120006E00000A0010020070605040302010000F04DFF30B3687935
:201BE000800700D5FFDF6979E07D61F34700E075D5F80600A0616889A083062105F10C006B
:201C000000F039FFE0B198F819104A08617862F347016170D8F81A10C4F80210B8F81E0023
:201C200017E028E020E033E02DE017E0E07D20F0FE00801CE075D5F81200A061E88ADBE71E
:201C4000607820F0FE00801C6070E868C4F80200288AE0800320FFF7B7FB1CE705B0204629
:201C6000BDE8F04301F092BC06F034FA16F8240F40F0020005E006F02DFA16F8240F40F043
:201C80000400307007E705B0BDE8F04306F022BAB178052909D00429DFD106F01BFA022019
:201CA00005B0BDE8F043FFF78FBB80780028D4D0F07800F0AAFE06F00DFA0320F0E72DE986
:201CC000F047054600780027000991460C463E46012871D0022870D007280AD00A286DD0E1
:201CE000FFDF00BFA9F800600CB12780668000207EE5D5F804C0DFF8448804F108009CF8B4
:201D000000204FF0010AD21F4FF6FF71142A76D2DFE802F00AF9F9F9F9F9F91DF9F926C09F
:201D2000889DF91061D476EE12271026BCF804002146F3E01C270A26ECB3BCF80200A08093
:201D4000686800792072686840796072CAE71B27092684B30320207268684088A080C1E7DF
:201D60009CF802103C29BDD010272C260CF1020C0CB3BCF80210A180BCF818106182BCF81E
:201D800018102182BCF81A10A182BCF81C10E1829CF8053002460CF106011846FFF7A9FC26
:201DA0009CF8040001289DD184F80FA00020207608F1040003E00BE0A8E0B2E0EAE090E8EC
:201DC0000E00D8F81000C4E90930C4E9071289E7A9F800608BE720271126002CF8D0A180F3
:201DE000686804F10A02807820726868807A607269680B1DC8781946FFF77BFC72E782E02C
:201E000021270A26002CE3D0BCF80200A08068680079207268684079607298F8241021F08A
:201E2000040162E022270B26002CD1D0BCF80400A0806868807820726868807900F02AFE01
:201E400060726868C07900F025FEA0724AE726271C26002CBCD0A1806868C078607268683F
:201E60008079A07208F1040090E80E00D8F81000C4E90530C4E90312686880783C2803D051
:201E8000432804D0FFDF2DE784F808A02AE70220207227E724271026002C99D0BCF802004E
:201EA000A0806868007920816868007A60816868C088A08168684089E08113E72327102640
:201EC000002C85D0BCF80200A0806868808820816868C088608168680089A0816868408926
:201EE000E08198F8241021F0020188F82410F9E62F272A26002C86D0A18069682222891C13
:201F00000BF017FAEEE64A46214644E0287A022801D0FFDFE6E612271026688800F098FD9B
:201F2000E0E6287AB0B3012835D0022833D0032801D0FFDFD6E611270926002C8AD0B5F84B
:201F400002804046FFF7FAFB90F822A0A4F80480687A2072042140460EF0C2F805214046A1
:201F60000EF0BEF8002140460EF0BAF8012140460EF0B6F8032140460EF0B2F80221404607
:201F80000EF0AEF8062140460EF0AAF8504600F03CFDA7E6FFE72846BDE8F04701F02CBCFB
:201FA00070B5012801D0FFDF70BD8DB22846FFF7C5FB040000D1FFDF20782128F4D006F046
:201FC00085F880B1017821F00F01891C21F0F001103101700221017245800020A075BDE82B
:201FE000704006F077B821462846BDE870401322FFF7A7BB2DE9F04116460C00804600D10F
:20200000FFDF307820F00F00801C20F0F000103030702078022802D0FFDFBDE8F081404691
:20202000FFF78CFB050000D1FFDFA1884FF6FF700027814202D1E288824203D0814201D13F
:20204000E08840B106F046F894E80F00083686E80F00AF75E1E7A87D0128DED17823002207
:20206000414611F0B1FD0220A875D6E738B505460C460846FFF7DFF8A8B9242D31D006DCF4
:20208000202D0AD0212D0AD0222D04D124E0252D1BD03F2D2DD0072038BD062038BD606824
:2020A000FFF70DF908B1102038BD618820886A460CF0E1FF05F028FE0028F5D1616800292E
:2020C000F2D0BDF800200A8038BDA07800F0010120880DF001F808E02068BDE8384001F0C4
:2020E000C0BD618820880CF05FFFBDE8384005F00BBE207800F001008DF8000068460CF0E5
:20210000BDFD05F001FE38BD70B505460C460846FFF7B7F808B1102070BD202D07D0212DDF
:202120000DD0222D0BD0252D09D0072070BD2088A11C0CF03CFDBDE8704005F0E5BD06206D
:2021400070BDFE481930704708B528220021FB480BF019F90120FFF737F9F84968461A3113
:2021600005F04AFFF5489DF80020417E62F3470121F001014176002180F822104FF4617129
:202180000184022180F82310FFF736F900B1FFDF00F0AEFC01F0CCF908BD10B50C464022AA
:2021A000002120460BF0EFF8A07F20F00300A077202020700020A07584F8230010BD704745
:2021C0002DE9FC410746FFF736F810B11020BDE8FC81DA4E06F11901D6F819000090B6F8CA
:2021E0001D50ADF80450F47F8DF806403846FFF769FA0028EBD1FFF7FFF80028E7D000991B
:2022000046F8191FB580B471E1E710B50446FFF738F808B1102010BDC848C8492246407EF4
:202220001A314008FFF765FA002010BD3EB504460D460846FFF725F808B110203EBD14B12F
:2022400043F204003EBDBD488078052803D0042801D008203EBD694602A80BF01AFB2A4654
:2022600069469DF80800FFF744FA00203EBDFEB50D4604004FF0000711D00822FFF74DF92C
:20228000002811D1002608E054F826006946FFF7D4F9002808D1761CF6B2AE42F4D30CF054
:2022A00037FB10B143F20320FEBDA44E3776FCB100271AE054F8270002A9FFF7BEF900B12F
:2022C000FFDF9DF808008DF8000054F8270050F8011FCDF801108088ADF8050068460CF0F1
:2022E0003CFB00B1FFDF7F1CFFB2AF42E2D335760020FEBD2DE9F0478AB0154689460400EB
:202300001DD00F4608222946FFF707F9002810D1002612E054F826006946103000F08EFBF1
:20232000002806D13FB157F82600FEF784FF10B110200AB0DCE4761CF6B2AE42EAD3002649
:20234000A5F101081CE000BF06F1010A0AF0FF0712E000BF54F82600017C4A0854F82710AC
:202360000B7CB2EB530F05D10622113011310AF0B3FF58B17F1CFFB2AF42EBD30AF0FF06A7
:202380004645E1DB4E4624B1012003E043F20520CFE700200CF000FB10B90CF009FB10B1D8
:2023A00043F20420C5E75CB300270DF1170825E054F827006946103000F040FB00B1FFDFA4
:2023C00054F82700102250F8111FCDF801108088ADF8050054F827100DF107000AF0A9FF2E
:2023E00096B156F82710102240460AF0A2FF68460CF098FA00B1FFDF7F1CFFB2AF42D7D30C
:20240000FFF7B7F9002094E7404601F01EFCEEE730B585B00446FEF70EFF18B96068FEF721
:2024200057FF10B1102005B030BD60884AF2B811884206D82078414D28B1012806D00228F6
:2024400004D00720EFE7FEF7D7FF18E06078022804D0032802D043F20220E4E785F8230053
:20246000C1B200200090ADF8040002292CD0032927D0FFDF68460CF00CFB05F045FC002859
:20248000D1D1606801F0D4FB207858B101208DF800000DF1010001F0D8FB68460CF075FEEB
:2024A00000B1FFDF207885F82200FFF762F9608860B1288480B20CF067FA00B1FFDF002022
:2024C000B1E78DF80500D5E74020FAE74FF46170EFE710B50446FEF7D4FE20B9606838B193
:2024E000FEF7EDFE08B1102010BD606801F0ADFB124830F8201F6180C178617080782070B1
:20250000002010BD2DE9F843144689460646FEF7B8FEB8B94846FEF7DBFE98B92046FEF7E4
:20252000D7FE78B9054DA878012800D154B13178FF2909D061B143F2040001E0A00100208D
:20254000BDE8F8831020F8E7012801D00420F4E7CCB3052811D004280FD06946204600F0B6
:20256000A4FA0028E9D1217D49B1012909D0022909D0032909D00720DFE70820DDE7024616
:2025800004E0012202E0022200E0032280462346174600200099FFF705F90028CDD1A08901
:2025A0002880A07BE875BDF80000A882AF75BDF80010090701D5A18931B1A1892980C007A7
:2025C00004D0032003E006E08021F7E70220FEF7FBFE86F800804946BDE8F8430020FFF729
:2025E0007CB92DE9FC41FF4C06460D46A078022803D0032801D00820E9E516B143F2040062
:20260000E5E506200DF00EFD10B9A078032849D00FF07CFC074610F0DBFE381A00F0FF08B7
:2026200006200DF0F7FC074606200DF0FBFC391AA078042809D000221144A8EB010111F0A0
:20264000FF0F04D0032804D00DE00122F4E71320BDE5284605F0D1FA10B3407810B32846FF
:2026600005F0D6FDE570FFF70BF80BF054F801208DF800008DF801008DF802602088ADF89D
:202680000400E07D8DF8060068460CF050FC05F03BFB0028B0D1A078032805D0042010E058
:2026A000052094E5122092E5E07805F0A6FA040000D1FFDF607800B9FFDF6078401E6070BE
:2026C0000520FEF781FE002081E51CB510B143F204001CBDC34CA078042803D0052801D013
:2026E00008201CBD00208DF8000001218DF801108DF8020068460CF01AFC05F005FB002818
:20270000EFD1A078052805D05FF00200FEF75CFE00201CBDE07800F078F90320F6E72DE977
:20272000FC4180460D4603260846FEF7D1FD08B110204CE54046FFF701F8040004D020780A
:20274000222804D2082042E543F202003FE5A07F00F003073DB1012F0AD000202946FEF71A
:20276000AEFE0600E5D1012F04D0FFDF30462EE50120F3E7A07D2946022801D011B107E05B
:20278000112024E5684600F0E7FA0028D1D16946404607F0CEFB0600E8D10120A075E5E700
:2027A00070B50C460546FEF7C9FF010005D022462846BDE87040FEF7C4BF43F2020070BDBD
:2027C00010B5012807D1874B9B78012B00D011B143F2040010BD0CF009F9BDE8104005F0A2
:2027E00093BA012300F01BB900231A46194600F016B970B5064615460C460846FEF741FD64
:2028000018B92846FEF73DFD08B1102070BD2A46214630460CF017FC05F076FA0028F5D185
:2028200021787F29F2D1052070BD7CB505460C460846FEF700FD08B110207CBD2846FEF7AF
:202840007DFF20B10078222804D208207CBD43F202007CBD634890F82400400701D511201D
:202860007CBD2178C80802D16078C20801D007207CBD890801D1800801D006207CBDADF850
:20288000005020788DF8020060788DF803000220ADF8040068460BF00FFF05F035FA7CBD8A
:2028A00070B586B014460D460646FEF747FF28B10078222805D2082006B070BD43F20200D5
:2028C000FAE72846FEF704FD20B944B12046FEF7F6FC08B11020EFE700202060A080414890
:2028E00090F82400800701D51120E5E703A930460BF01FFF18B100BF05F006FADCE7ADF8B2
:202900000060BDF81400ADF80200BDF81600ADF80400BDF81000BDF81210ADF80600ADF887
:2029200008107DB1298809B1ADF80610698809B1ADF80210A98809B1ADF80810E98809B1F6
:20294000ADF80410DCB1BDF80610814201D9081A2080BDF80210BDF81400814201D9081AB8
:202960006080BDF80800BDF80410BDF816200144BDF812001044814201D9081AA080684619
:202980000BF074FFB8E770B505460C460846FEF778FC08B1102070BD214628460CF04AF987
:2029A000BDE8704005F0B0B93EB505460C460846FEF767FC08B110203EBD00200090019009
:2029C0000290ADF800502089ADF8080020788DF80200606801902089ADF808006089ADF8BE
:2029E0000A0001E0A001002068460CF031F905F08BF93EBD0EB5ADF800000020019068461C
:202A00000CF026F905F080F90EBD10B505F0F5F8040000D1FFDF6078401C607010BD1CB566
:202A2000ADF800008DF802308DF803108DF8042068460CF0D7FA05F067F91CBD027852087C
:202A400004D0012A02D043F202207047FEF7F5BD70B50C0006460DD0FEF770FE050000D15D
:202A6000FFDFA68028892081288960816889A081A889E08170BD10B500231A4603E0845C92
:202A80002343521CD2B28A42F9D30BB1002010BD012010BD00B530B1012803D0022801D022
:202AA000FFDF002000BDFF2000BD00220A8092B222F060020A800078062817D2DFE800F04B
:202AC000160306090C1142F0110007E042F01D0009E042F0150006E042F0100040F00200AE
:202AE00001E042F0100008800020704707207047FD48002101604160018170472DE9FF4F71
:202B000093B09B46209F160004460DD01046FEF792FB18B1102017B0BDE8F08F3146012041
:202B2000FEF7CDFC0028F6D101258DF842504FF4C050ADF84000002210A9284603F016FE23
:202B40000028E8D18DF84250A8464FF428500025ADF840001C222946684607950AF013FCCA
:202B60009DF81C000DF11C0A20F00F00401C20F0F00010308DF81C0020788DF81D00617811
:202B80009DF81E000DF1400961F3420040F001008DF81E009DF8000008AA40F002008DF8D3
:202BA00000002089ADF83000ADF832506089ADF83400CDF82CA060680E900AA9CDF8289087
:202BC000684603F0C8FB0028A5D16068FEF777FB40B16068FEF77CFB20B9607800F00300FB
:202BE000022801D0012000E00020BF4C08AA0AA92072BDF8200020808DF8428042F60120A2
:202C0000ADF840009DF81E0020F00600801C20F001008DF81E000220ADF83000ADF83400E6
:202C200014A80E90684603F096FB002889D1BDF82000608036B1211D304600F059F90028CC
:202C4000C2D109E0BBF1000F05D00AF017F9E8BB0AF014F9D0BBA58017B1012F43D04AE0CF
:202C60008DF8428042F6A620ADF8400046461C220021684607950AF086FB9DF81C00ADF824
:202C8000346020F00F00401C20F0F00010308DF81C009DF81D0020F0FF008DF81D009DF84C
:202CA0001E0020F0060040F00100801C8DF81E009DF800008DF8446040F002008DF80000FB
:202CC000CDE90A9AADF8306011A800E011E00E9008AA0AA9684603F03EFB0028A6D1BDF8AA
:202CE0002000E08008E00AF0C9F810B90AF0C6F808B103200FE7E58000200CE73EB50446A9
:202D0000794D0820ADF80000A88828B12046FEF792FA18B110203EBD06203EBD2146012093
:202D2000FEF7CDFB0028F8D12088ADF804006088ADF80600A088ADF80800E088ADF80A0015
:202D4000A88801AB6A46002103F00CFFBDF800100829E2D003203EBD7FB5634D0446A888A4
:202D600068B1002002900820ADF80800CDF80CD02046FEF760FA20B1102004B070BD062055
:202D8000FBE7A98802AA4FF6FF7004F02DF90028F3D1BDF80810082901D00320EDE7BDF83F
:202DA00000102180BDF802106180BDF80410A180BDF80610E180E0E701B582B00220ADF82E
:202DC0000000494802AB6A464088002103F0CAFEBDF80010022900D003200EBD1CB50021C1
:202DE00000910221ADF800100190FEF74AFA08B110201CBD3C486A4641884FF6FF7004F039
:202E0000F3F8BDF800100229F3D003201CBDFEB5354C06461546207A0F46C00705D0084664
:202E2000FEF709FA18B11020FEBD0F20FEBDF82D01D90C20FEBD3046FEF7FDF918BB20883A
:202E400001A902F08AFF0028F4D130788DF80500208801A903F064FE0028EBD100909DF87E
:202E600000009DF8051040F002008DF80000090703D040F008008DF800002088694603F007
:202E8000ECFD0028D6D1ADF8085020883B4602AA002103F067FEBDF80810A942CAD00320BA
:202EA000FEBD7CB505460020009001900888ADF800000C4628460195FEF701FA18B92046E8
:202EC000FEF7DFF908B110207CBD15B1BDF8000060B105486A4601884FF6FF7004F084F8CD
:202EE000BDF8001021807CBDC80100200C20FAE730B5044693B000200D460146009014224B
:202F000001A80AF040FA1C22002108A80AF03BFA9DF80000CDF808D020F00F00401C20F0D9
:202F2000F00010308DF800009DF8010006AA20F0FF008DF801009DF8200001A940F0020070
:202F40008DF8200001208DF8460042F60420ADF8440011A801902088ADF83C006088ADF83B
:202F60003E00A088ADF84000E088ADF842009DF8020020F00600801C20F001008DF80200D6
:202F80000820ADF80C00ADF810000FA8059008A803F0E1F9002803D1BDF818002880002049
:202FA00013B030BD0A4810B5046809490948083108600FF0BEFE0648001D046010BD0649F4
:202FC000002008604FF0E0210220C1F8800270471005024001000001FC1F00400548064AC4
:202FE0000168914201D1002101600449012008607047000058000020BEBAFECA40E5014096
:203000002CFFFFFFDBE5B15100C00100CC00FFFF71000000C1CF6A00FEA0D9111C1006C352
:2030200089CCFC7A7B3B49141906A8C010B50446FEF701F908B1102010BD2078C0F302101A
:20304000042807D86078072804D3A178102901D8814201D2072010BDE078410706D42179BE
:203060004A0703D4000701D4080701D5062010BD002010BD70B514460D46064605F026F856
:2030800080B10178182221F00F01891C21F0F001A03100F8081B21460AF04BF9BDE870409E
:2030A00005F018B829463046BDE870401322FEF748BB2DE9F047064608A8904690E8300419
:2030C00089461F461422002128460AF05CF90021CAF80010B8F1000F03D0B9F1000F03D19D
:2030E00014E03878C00711D02068FEF7CAF8C0BBB8F1000F07D1206812302860206814301C
:2031000068602068A8602168CAF800103878800724D56068FEF7D3F818BBB9F1000F21D0C7
:20312000FFF70FF80168C6F868118188A6F86C11807986F86E0101F034FAF84FEF60626869
:2031400062B196F8680106F2691140081032FEF7D0FA1022394660680AF0EBF80020BDE88F
:20316000F08706E0606820B1E8606068C6F86401F4E71020F3E730B5054608780C4620F02F
:203180000F00401C20F0F001103121700020607095F8230030B104280FD0052811D0062829
:2031A00014D0FFDF20780121B1EB101F04D295F8200000F01F00607030BD21F0F000203028
:2031C00002E021F0F00030302070EBE721F0F0004030F9E7F0B591B0022715460C460646F1
:2031E0003A46ADF80870092103AB05F070FD0490002810D004208DF804008DF80170E034A5
:20320000099605948DF818500AA968460EF051FC00B1FFDF012011B0F0BD2DE9F84F064616
:20322000808A0C4680B28246FEF788FA0546BB4F3078203F4FF002094FF000080F287CD24F
:20324000DFE800F07BA39D082C5B6A7CBADAFD9748979700012150460CF030FF040000D131
:20326000FFDF97F85C00C00701D0386E0BE0032104F11D0010F06BFAD4F81D00A849B0FB3C
:20328000F1F201FB1200C4F81D0070686067B068A0672878252872D0FFDF70E00121504691
:2032A0000CF00CFF060000D1FFDF3078810702D52978252904D040F001003070BDE8F88F8B
:2032C00084F80090307F207106F11D002D36C4E90206F3E7012150460CF0F0FE050000D124
:2032E000FFDF2878C10604D5072020703D356560E4E740F008002870E0E7E87F000700D51D
:20330000FFDF307CB28800F0010301B05046BDE8F04F092106F06FBD05B9FFDF716821B137
:20332000102205F124000AF004F828212846FEF774F8307A85F82000C0E7F7E001215046B6
:203340000CF0BCFE050000D1FFDF022105F1850010F0FDF90420207005F5B4706060B5F830
:20336000850020826D4810387C356561C4E90270A4E7012150460CF0A1FE00B9FFDF3246A6
:2033800029465046BDE8F84F74E605B9FFDF2878212893D93079012803D1E87F40F00800AC
:2033A000E877324629465046FFF764FE2846BDE8F84F2321FEF731B83279A28004F1080390
:2033C0000921504605F083FCE06010B10520207074E74546012150460CF070FE040000D126
:2033E000FFDF04F1620102231022081F0CF0FFFC05703179417061E7012150460CF05EFEFA
:20340000040000D1FFDF94F8840000F00300012859D1E87F10F0010003D194F8A010C9075B
:203420002AD0D4F8602132B394F88330117C63F387011174AA7FD30963F3410100E071E063
:20344000D4F860211174D4F8602160F30001117490B1D4F86001102205F12401883409F004
:2034600068FF207E40F001002076207820F0010004F8880919E0C0B994F88810C90714D000
:20348000D4F85C218AB194F88330117C63F387011174AA7FD309D4F85C2163F3410111740E
:2034A000D4F85C2160F30001117494F88800800709D594F87C00D4F86421400804F17D015D
:2034C0001032FEF716F98DF8009094F884006A4600F003008DF8010094F888108DF802109D
:2034E00094F8A0008DF803002946504601F042F82878252805D0212807D0FFDF287822283E
:2035000003D922212846FDF788FF012150460CF0E7FD00283FF4DDAEFFDFCFE6F40100207D
:2035200040420F00716881F80180C7E6FFDFC5E670B5FE4C002584F85C5025660EF085FA2D
:2035400004F11001204604F07DFD84F8305070BD70B50D46FEF7F2F8040000D1FFDF4FF41B
:20356000B8720021284609F00EFF2434012105F1E0002C610EF06AFA002800D0FFDF70BD4A
:203580000A46014602F1E0000EF081BA70B50546406886B00178082906D00B2933D00C294E
:2035A0002FD0FFDF06B070BD46883046FEF7C6F8040000D1FFDF20782128F3D028281BD1C1
:2035C000686802210C3000F0A0FFA8B168680821001D00F09AFF78B104F1240130460BF081
:2035E000A8FC04F091FB00B1FFDF06B02046BDE870402921FDF711BF06B0BDE8704004F09A
:2036000069BD01218171686886883046FEF796F8040000D1FFDF20782128C3D068688179A8
:2036200009B1807808B1FFDFBCE704F053FDA07F000622D5E07FC00705D094F8200000F0A7
:203640001F00102817D0052084F823002078292815D02428A6D13146042010F05FFB22219F
:203660002046FDF7DAFE012130460CF039FD002898D0FFDF96E70620E6E70420E4E701215F
:2036800030460CF01BFD050000D1FFDF25212046FDF7C3FE03208DF80000694605F1E0005E
:2036A0000EF0ECF90228BFD00028BDD0FFDF79E72DE9F04788B09A46164688468146FEF730
:2036C0003DF805003AD02878222837D3232835D0E87F000732D40027012148460CF0EEFC31
:2036E000040005D10121002248460CF0DEFC0446694600F066FF009800B9FFDF00983CB146
:20370000E03404612878222804D0242802D005E0076103E025212846FDF77FFE0098012145
:203720004170C0F824908680C0E9028A01A90EF0C0F9022802D0002800D0FFDF08B00EE553
:2037400070B586B00546FDF7F9FF0078222814D9012128460CF0B2FC04002CD1FFDF2AE005
:20376000B4F85E0004F1620630440178427829B121462846FFF72EFDB0B913E7ADF804203F
:203780000921284602AB05F0A2FA03900028F4D005208DF80000694604F1E0000EF06EF941
:2037A000022801D000B1FFDF02231022314604F15E000CF052FBB4F860000028D0D1F1E669
:2037C00010B586B00446FDF7B9FF0078222811D9012120460CF072FC040000D1FFDF062081
:2037E0008DF80000694604F1E0000EF047F9002800D0FFDF06B010BD2DE9F84F0546007809
:203800000C460027010904F1080090463E46BA46009002297ED0072902D00A2909D142E094
:2038200068680178082905D00B292CD00C292AD0FFDF72E114271C26002C6CD04088A080DC
:20384000FDF77CFF5FEA000900D1FFDF99F8170009F118014008009AFDF74BFF6868808944
:20386000208268684168C4F812108068C4F81600A07E20F0060040F00100A07699F81E006B
:2038800040F020014FE01A270A26002CD5D08088A080FDF753FF050000D1FFDF284600993D
:2038A000FFF769FC39E10CB1A88BA080287A4FF0010B0B287ED006DC01287CD0022808D0BC
:2038C000032804D137E00D2876D00E2875D0FFDF23E11E270926002CAFD0A088FDF72EFF91
:2038E0005FEA000900D1FFDF287B00F003000128207A1DD020F001002072297B890861F355
:2039000041002072297BC90861F382002072297B090901E0F7E0AEE061F3C300207299F8C1
:203920001E0040F0400189F81E10F6E0D401002040F00100E0E713270D26002CA6D0A0884F
:20394000FDF7FCFE81460121A0880CF0B7FB050000D1FFDF686F817801F003010129217A7C
:2039600050D021F00101217283789B0863F3410121728378DB0863F38201217283781B094F
:2039800063F3C3012172037863F306112172437863F3C711217284F809A0C178A172027997
:2039A000E17A62F30001E1720279520862F34101E17203E029E067E04EE05FE0027992088F
:2039C00062F38201E1720279D20862F3C301E1724279217B62F3000121734279520862F350
:2039E000410121734279920862F3820121734079C00860F3C301217399F8000023282AD925
:203A0000262139E041F00101ADE71827102694B3A088FDF793FE00900121A0880CF04EFBF7
:203A20005FEA000900D1FFDFE868A06099F8000040F0040189F8001099F80100800708D5E8
:203A400084F80CB000980078232866D92721009852E084F80CA060E015270F265CB1A08874
:203A6000FDF76CFE81460622E868009909F0E9FC84F80EB085E042E048463DE0162709265A
:203A8000ECB3287B207248E0287B19270E26B4B3C4F808A0A4F80CA0012807D0022808D0FE
:203AA00003280CD004280AD0FFDF15E084F808B001E002202072607A20F003000BE0697BA1
:203AC000042801F00F0141F080012172F3D1607A20F00300401C6072A088FDF72FFE054601
:203AE0000078212819D0232800D0FFDF0121A0880CF0F6FA22212846FDF78FFC0DE0FFE7EA
:203B0000A8F800600EE00CB16888A080287A10B3012809D002283AD0FFDFA8F800600CB1B4
:203B200027806680002007E415270F26002CE7D0A088FDF703FE0121A0880CF0BFFA050078
:203B400000D1FFDFD5F81D000622009909F079FC84F80EA0E1E717270926002CD0D0A0884A
:203B6000FDF7ECFD81460121A0880CF0A7FA050000D1FFDF6878800701D5022000E00120A6
:203B8000207299F800002328C7D9272174E719270E26002CB4D0A088FDF7D0FD5FEA000915
:203BA00000D1FFDFC4F808A0A4F80CA084F808A0A07A40F00300A07299F81E10C90961F342
:203BC0008200A07299F81F2099F81E1012EAD11F05D099F8201001F01F01102925D020F0F1
:203BE0000800A07299F81F10607A61F3C3006072697A01F0030101298FD140F004006072C0
:203C0000E87A217B60F300012173AA7A607B62F300006073EA7A520862F341012173A97A8B
:203C2000490861F34100607377E740F00800D8E710B5F84C30B10146102204F1200009F005
:203C400078FB012084F8300010BD10B5044600F0A8FCF04920461022BDE81040203109F0A4
:203C600068BB70B5EB4D06004FF0000412D0FDF7E2FA08B110240BE00621304609F0C8FB98
:203C8000411C04D02866012085F85C0000E00724204670BD0020F7E7007810F00F0204D072
:203CA000012A05D0022A0CD110E0000909D10AE00009012807D0022805D0032803D004280C
:203CC00001D0072070470870002070470620704705282AD2DFE800F003070F171F0008785A
:203CE00020F0FF001EE0087820F00F00401C20F0F000103016E0087820F00F00401C20F07B
:203D0000F00020300EE0087820F00F00401C20F0F000303006E0087820F00F00401C20F029
:203D2000F0004030087000207047072070472DE9F043804687B00D464FF000090846FDF7D3
:203D4000C7FAA8B94046FDF7F9FC060003D0307822280BD104E043F2020007B0BDE8F08341
:203D600035B1B07FC10601D4000703D50820F4E71020F2E7F07F000701D50D20EDE7002733
:203D8000012140460CF09AF9040006D10121002240460CF08AF9040005D0694600F011FC43
:203DA000009818B901E00420D7E7FFDF00980221E0344170C0F8248044610781012101715C
:203DC000297801F00102017E62F3010101762A78520862F3820101762A78920862F3C30161
:203DE00001762A78D20862F30411017624213046FDF713FB01A900980DF05BFE022801D09F
:203E000000B1FFDF4846A8E72DE9FF4F0E468249904697B09A4607C914AB4FF0000983E834
:203E200007001798FDF78AFC050006D02878262806D008201BB0BDE8F08F43F20200F9E785
:203E400026B94046FFF7F2F80028F3D1012117980CF034F9040000D1FFDF852E27D007DCF7
:203E6000EEB1812E1DD0822E1DD0832E08D11CE0862E1ED0882E1ED0892E1ED08A2E1ED053
:203E80000F2020710F281CD004F020F9D8B101208DF83400201D0E902079B0B126E10020D3
:203EA000EFE70120EDE70220EBE70320E9E70520E7E70620E5E70820E3E70920E1E70A205E
:203EC000DFE70720B6E71120B4E798F80000D4E91D764208A87F002162F3C710A87798F83F
:203EE00000008208E87F62F30000E87798F80000C209607862F34100607098F800000209E9
:203F0000207862F34710207098F80000C208607862F30000607098F80100607198F8000084
:203F200000F00102B07862F30100B070AA7FD20962F38200B070EA7F62F3C300B07062787A
:203F400062F30410B0702278C0F3C000520932706278C2F34002727098F80220F270717125
:203F60003171B978C1F3C00108405FEA000B2ED05046FDF760F978BBDAF80C00FDF75BF923
:203F800050BBDAF81C00FDF756F928BBDAF80C00A060DAF81C00E06060787A7842EA5001AF
:203FA00061F341006070B978C0B200EA111161F3000060700020207705F117006061681CC0
:203FC000A061B07800F00300012806D046E060787A7802EA5001E3E719E0B87800F00300B3
:203FE00001283BD1321D711D404600F099FA3179387901408DF8281070797A7910408DF89C
:20400000300001432AD05046FDF715F930B1102010E70000D4010020E8B001000AF11000F9
:2040200004F5AE7304F18C028DE80D0000210AAB5A462046FFF73DF80028E9D104F5B0725D
:2040400004F1A403CDF800A0CDE9013201210CAB5A462046FFF72DF80028D9D1607880074B
:2040600022D4B078B978C0F38000C1F3800108431AD0307814AA397832F810204B00DA407E
:2040800002F00309B9F1030F01D14FF00209BBF1000F09D0012801D0042805D1012901D0BF
:2040A000042901D14FF00409A87F40F08000A877E97F6BF30001E9776078800706D503203B
:2040C000A071BBF1000F11D100202CE00220B9F1020F1AD0B9F1010F19D0B9F1040F2AD0E5
:2040E0000020A071A87F20F08000A87725212846FDF793F90DA904F1E0000DF0BFFC10B181
:20410000022800D0FFDF002094E6A071DCE7A0710D22002104F1200009F035F9207840F0F4
:204120000200207001208DF84C0013AA2946179800F020FADAE70120A071D7E72DE9F0431C
:2041400087B09046894604460025FDF7F7FA070004D03878272804D00820FEE543F202003F
:20416000FBE5012120460BF0A9FF040000D1FFDFA6795FEA090005D0012821D0B9F1020F66
:2041800026D110E0B8F1000F22D1012E05D0022E05D0032E05D0FFDF2EE00C252CE001252F
:2041A0002AE0022528E04046FDF745F8B0B9032E0ED11022414604F11D0009F0BAF81BE025
:2041C000012E02D0022E03D104E0B8F1000F13D00720C2E54046FDF72EF808B11020BCE563
:2041E0001022002104F11D0009F0CDF80621404609F00EF9C4F81D002078252140F0020006
:2042000020703846FDF709F92078C10713D020F00100207002208DF8000004F11D0002906B
:204220008DF804506946C3300DF028FC022803D010B1FFDF00E0257700208EE530B587B01B
:204240000D460446FDF77AFA60B1012120460BF035FF04000CD02846FCF7EDFF28B110205B
:2042600007B030BD43F20200FAE72078400701D40820F5E7294604F13D002022054609F0A3
:2042800058F8207840F01000207001070FD520F00800207007208DF80000694604F1E000A2
:2042A00001950DF0EBFB022801D000B1FFDF0020D6E770B50D460646FDF740FA18B10078EB
:2042C000272817D102E043F2020070BD012130460BF0F4FE040000D1FFDFA079022809D10C
:2042E0006078C00706D02A4621463046FEF772FF10B10FE0082070BDB4F860000E280BD272
:2043000004F1620102231022081F0BF070FD012101704570002070BD112070BD70B50646FB
:2043200014460D460846FCF786FF18B92046FCF7A8FF08B1102070BDA6F57F40FF380ED0B4
:204340003046FDF7FBF938B1417822464B08811C1846FDF7CEF907E043F2020070BD20463B
:20436000FDF753FF0028F9D11021E01D0FF0EFF9E21D294604F1170000F033F9002070BD0D
:204380002DE9F04104468AB015460E4600270846FCF79EFF18B92846FCF79AFF18B11020DA
:2043A0000AB0BDE8F0812046FDF7C8F95FEA000804D098F80000272810D102E043F2020014
:2043C000EEE7012120460BF079FE040000D1FFDF2078400702D56078800701D40820DFE783
:2043E000D4E91D01497801B18DB1407800B176B1ADB1EA1D06A8E16800F0F3F8102206A989
:2044000005F1170008F068FF18B1042707E00720C6E71022E91D04F12D0008F08AFF2EB1C7
:204420001022F11D04F11D0008F083FF2078252140F0020020704046FCF7EFFF2078C10749
:2044400015D020F00100207002208DF8000004F11D000290103003908DF804706946B3302D
:204460000DF00CFB022803D010B1FFDF00E02777002095E770B50D4606460BB1072070BDAE
:20448000FDF75CF9040007D02078222802D3A07F800604D4082070BD43F2020070BDADB1AD
:2044A000294630460AF045FD03F02EFC297C4A08A17F62F3C711A177297CE27F61F3000206
:2044C000E277297C890884F8201004E030460AF053FD03F019FCA17F21F02001A17770BD5E
:2044E00070B50D46FDF72AF9040005D02846FCF7C8FE20B1102070BD43F2020070BD29462C
:204500002046FEF738FE002070BD04E010F8012B0AB100207047491E89B2F7D201207047D0
:2045200010B5C4780B7864F300030B70C478640864F341030B70C478A40864F382030B7025
:20454000C478E40864F3C3030B700379117863F30001117003795B0863F34101117003794A
:204560009B0863F3820111700079C00860F3C301117010BD70B51546064603F0A7FD040031
:2045800000D1FFDF207820F00F00801C20F0F0002030207066802868A060BDE8704003F07B
:2045A00099BD10B5134C94F83000002808D104F12001A1F110000DF0A3FA012084F83000A5
:2045C00010BD10B190F8B9202AB10A4890F8350018B1002003E0B83001E006483430086053
:2045E000704708B50023009313460A460BF065FF08BD0000D4010020F0B5007B059F1E46A7
:2046000014460D46012800D0FFDF0C2030803A203880002C08D0287A032806D0287B0128B5
:2046200000D0FFDF17206081F0BDA889FBE72DE9F04786B0144691F80C900E9A0D46B9F14D
:20464000010F0BD01021007B2E8A8846052807D0062833D0FFDF06B0BDE8F0870221F2E75C
:20466000E8890C2100EB400001EB4000188033201080002CEFD0E889608100271AE00096D6
:20468000688808F1020301AA696900F086FF06EB0800801C07EB470186B204EB4102BDF84C
:2046A000040090810DF1060140460E320DF09EFA7F1CBFB26089B842E1D8CCE73420108046
:2046C000E889B9F1010F11D0122148430E301880002CC0D0E88960814846B9F1010F00D014
:2046E0000220207300270DF1040A1FE00621ECE70096688808F1020301AA696900F04DFF9C
:2047000006EB0800801C86B2B9F1010F12D007EBC70004EB4000BDF80410C18110220AF110
:204720000201103008F005FE7F1CBFB26089B842DED890E707EB470104EB4102BDF80400FA
:20474000D0810AF10201404610320DF04FFAEBE72DE9F0470E4688B090F80CC096F80C80E3
:20476000378AF5890C20109902F10C044FF0000ABCF1030F08D0BCF1040F3FD0BCF1070FB0
:204780007ED0FFDF08B067E705EB850C00EB4C00188031200880002AF4D0A8F1060000F041
:2047A000FF09558126E01622002101A808F0EBFD00977088434601AA716900F0EEFEBDF805
:2047C00004002080BDF80600E080BDF808002081A21C0DF10A0148460DF008FAB9F1000FAF
:2047E00000D018B184F804A0A4F802A007EB080087B20A346D1EADB2D5D2C3E705EB850C95
:2048000000EB4C00188032200880002ABAD0A8F1050000F0FF09558137E0009770884346A0
:2048200001AA716900F0B9FE9DF80600BDF80410E1802179420860F3000162F3410182082E
:2048400062F38201C20862F3C301020962F30411420962F34511820962F386112171C00960
:204860006071BDF80700208122460DF1090148460DF0BCF918B184F802A0A4F800A000E057
:2048800007E007EB080087B20A346D1EADB2C4D278E7A8F1020084B205FB08F000F10E0C0D
:2048A000A3F800C035230B80002AA6D055819481009783B270880E32716900F06EFE61E7AD
:2048C0002DE9F84F1E460A9D0C4681462AB1607A00F58070D080E089108199F80C000C27A3
:2048E0004FF000084FF00E0A0D2872D2DFE800F09D070E1B272F37455469727272002146D1
:2049000048460095FFF778FEBDE8F88F207B9146082802D0032800D0FFDF3780302009E09F
:20492000A9F80A80F0E7207B9146042800D0FFDF378031202880B9F1000FF1D1E4E7207B98
:204940009146042800D0FFDF37803220F2E7207B9146022800D0FFDF37803320EAE7207B04
:204960001746022800D0FFDF3420A6F800A02880002FC9D0A7F80A80C6E7207B1746042806
:2049800000D0FFDF3520A6F800A02880002FBBD04046A7F80A8012E0207B1746052802D0DC
:2049A000062800D0FFDF1020308036202880002FAAD0E0897881A7F80E80B9F80E00B8810D
:2049C000A2E7207B9146072800D0FFDF37803720B0E72AE04FF0120018804FF038001700D9
:2049E000288091D0E0897881A7F80E80A7F8108099F80C000A2805D00B2809D00C280DD02F
:204A0000FFDF81E7207B0A2800D0FFDF01200AE0207B0B2800D0FFDF042004E0207B0C2877
:204A200000D0FFDF052038736EE7FFDF6CE770B50C460546FCF782FE20B10078222804D2D4
:204A4000082070BD43F2020070BD052128460BF035FB206008B1002070BD032070BD30B424
:204A60004880087820F00F00C01C20F0F000903001F8080B1DCA81E81D0030BC03F02ABBF6
:204A80002DE9FF4784B0002782460297079890468946123006F043FB401D20F0030607982F
:204AA00028B907A95046FFF7C2FF002854D1B9F1000F05D00798017B19BB052504681BE0BD
:204AC00098F80000092803D00D2812D0FFDF46E0079903254868B0B3497B42887143914237
:204AE00039D98AB2B3B2011D0BF06DF90446078002E0079C042508340CB1208810B1032D73
:204B000029D02CE007980121123006F03AFBADF80C00024602AB2946504604F0D8F80700EC
:204B200001D1A01C029007983A461230C8F80400A8F802A003A94046029B06F02FFBD8B176
:204B40000A2817D200E006E0DFE800F007091414100B0D141412132014E6002012E61120AD
:204B600010E608200EE643F203000BE6072009E60D2007E6032005E6BDF80C002346CDE9DC
:204B800000702A465046079900F017FD57B9032D08D10798B3B2417B406871438AB2011D6C
:204BA0000BF025F9B9F1000FD7D0079981F80C90D3E72DE9FE4F91461A881C468A46804639
:204BC000FAB102AB494604F082F8050019D04046A61C27880BF0B7FB3246072629463B4659
:204BE00000960AF0D6FF20882346CDE900504A465146404600F0E1FC002020800120BDE839
:204C0000FE8F0020FBE710B586B01C46AAB104238DF800301388ADF808305288ADF80A2050
:204C20008A788DF80E200988ADF80C1000236A462146FFF725FF06B010BD1020FBE770B55F
:204C40000D4605210BF03AFA040000D1FFDF294604F11200BDE8704006F07CBA2DE9F843B1
:204C60000D468046002603F031FA04462878102878D2DFE800F0773B345331311231313174
:204C80000831313131312879001FC0B2022801D0102810D114BBFFDF35E004B9FFDF05214E
:204CA00040460BF00BFA007B032806D004280BD0072828D0FFDF072655E02879801FC0B2D2
:204CC000022820D050B1F6E72879401FC0B2022819D0102817D0EEE704B9FFDF13E004B918
:204CE000FFDF287901280ED1172137E0052140460BF0E4F9070000D1FFDF07F11201404613
:204D000006F005FA2CB12A4621464046FFF7A7FE29E013214046FDF743FD24E004B9FFDF33
:204D2000052140460BF0CAF9060000D1FFDF694606F1120006F0F5F9060000D0FFDFA988D3
:204D4000172901D2172200E00A46BDF80000824202D9014602E005E01729C5D3404600F027
:204D60003CFCD0E7FFDF3046BDE8F883401D20F0030219B102FB01F0001D00E00020104435
:204D8000704713B5009848B1002468460AF0C5FF002C02D1F74A009911601CBD012400200B
:204DA000F4E72DE9F0470C46154624220021204608F0E9FA05B9FFDFA87860732888DFF860
:204DC000B4A3401D20F00301AF788946DAF800000AF0C1FF060000D1FFDF4FF00008266007
:204DE000A6F8008077B109FB07F1091D0AD0DAF800000AF0B0FF060000D1FFDF6660C6F8BD
:204E0000008001E0C4F80480298804F11200BDE8F04706F06DB92DE9F047804601F112002A
:204E20000D46814606F07BF9401DD24F20F003026E7B1446296838680AF0B8FF3EB104FB48
:204E400006F2121D03D0696838680AF0AFFF05200BF0E0F8044605200BF0E4F8201A01289E
:204E600002D138680AF06CFF49464046BDE8F04706F054B970B5054605210BF01FF90400B9
:204E800000D1FFDF04F112012846BDE8704006F03EB92DE9F04F91B04FF0000BADF834B042
:204EA000ADF804B047880C4605469246052138460BF004F9060000D1FFDF24B1A780A4F86C
:204EC00006B0A4F808B0297809220B20B2EB111F7ED12A7A04F1100138274FF00C084FF01A
:204EE00001090391102A74D2DFE802F073F3F2F18008D3898EA03DDCF4EFB7B7307B022841
:204F000000D0FFDFA88908EBC001ADF804103021ADF83410002C25D06081B5F80E90002797
:204F20001DE004EBC708317C88F80E10F189A8F80C10CDF800906888042304AA296900F099
:204F40002CFBBDF81010A8F8101009F10400BDF812107F1C1FFA80F9A8F81210BFB2608977
:204F6000B842DED80EE1307B022800D0FFDFE98908EBC100ADF804003020ADF83400287B74
:204F80000A90001FC0B20F90002CEBD06181B5F81090002726E000BFCDF80090688869692E
:204FA00003AA0A9B00F0F9FA0A9804EBC70848441FFA80F908F10C0204A90F980CF016FED3
:204FC00018B188F80EB0A8F80CB0BDF80C1001E0D4E0D1E0A8F81010BDF80E107F1CA8F889
:204FE0001210BFB26089B842D6D8CBE00DA8009001AB224629463046FFF719FBC2E0307B4D
:20500000082805D0FFDF03E0307B082800D0FFDFE8891030ADF804003620ADF83400002C8C
:205020003FD0A9896181F189A18127E0307B092800D0FFDFA88900F10C01ADF804103721E0
:20504000ADF83410002C2CD06081E8890090AB89688804F10C02296956E0E8893921103063
:2050600080B2ADF80400ADF83410002C74D0A9896181287A0E280AD002212173E989E181AB
:20508000288A0090EB8968886969039A3CE00121F3E70DA8009001AB224629463046FFF7AF
:2050A00057FB6FE0307B0A2800D0FFDF1220ADF80400ADF834704CB3A9896181A4F810B031
:2050C000A4F80EB084F80C905CE020E002E031E039E042E0307B0B2800D0FFDF288AADF811
:2050E00034701230ADF8040084B104212173A9896181E989E181298A2182688A00902B8ABE
:20510000688804F11202696900F047FA3AE0307B0C2800D0FFDF1220ADF80400ADF83470C8
:205120003CB305212173A4F80AB0A4F80EB0A4F810B027E00DA8009001AB22462946304675
:20514000FFF75AFA1EE00DA8009001AB224629463046FFF7B5FB15E034E03B21ADF8040015
:20516000ADF8341074B3A4F80690A4F808B084F80AB007E010000020FFDF03E0297A0129BE
:2051800017D0FFDFBDF80400AAF800006CB1BDF834002080BDF804006080BDF83400392866
:2051A00003D03C2801D086F80CB011B00020BDE8F08F3C21ADF80400ADF8341014B1697A11
:2051C000A172DFE7AAF80000EFE72DE9F84356880F4680461546052130460AF06FFF0400D1
:2051E00000D1FFDF123400943B46414630466A6806F008F9B8E570B50D4605210AF05EFF4D
:20520000040000D1FFDF294604F11200BDE8704005F092BF70B50D4605210AF04FFF0400E0
:2052200000D1FFDF294604F11200BDE8704005F0B0BF70B5054605210AF040FF040000D1EC
:20524000FFDF04F1080321462846BDE870400422AFE470B5054605210AF030FF040000D1F9
:20526000FFDF214628462368BDE870400522A0E470B5064605210AF021FF040000D1FFDF8C
:2052800004F1120005F04BFF401D20F0030511E0011D00880322431821463046FFF789FCE4
:2052A00000280BD0607BABB2684382B26068011D0AF0D3FD606841880029E9D170BD70B55E
:2052C0000E46054602F002FF040000D1FFDF0120207266726580207820F00F00C01C20F076
:2052E000F00030302070BDE8704002F0F3BE2DE9F0438BB00D461446814606A9FFF797FBA7
:20530000002814D14FF6FF7601274FF420588CB103208DF800001020ADF8100007A80590D5
:2053200007AA204604A90CF080FC78B107200BB0BDE8F0830820ADF808508DF80E708DF861
:205340000000ADF80A60ADF80C800CE00698A17801742188C1818DF80E70ADF80850ADF865
:205360000C80ADF80A606A4602214846069BFFF787FBDCE708B501228DF8022042F6020292
:20538000ADF800200A4603236946FFF73CFC08BD08B501228DF8022042F60302ADF80020A7
:2053A0000A4604236946FFF72EFC08BD00B587B079B102228DF800200A88ADF808204988D3
:2053C000ADF80A1000236A460521FFF759FB07B000BD1020FBE709B1072314E4072070478B
:2053E00070B588B00D461446064606A9FFF71FFB00280ED17CB10620ADF808508DF80000BC
:20540000ADF80A40069B6A460821DC813046FFF737FB08B070BD05208DF80000ADF808509C
:20542000F0E700B587B059B107238DF80030ADF80820039100236A460921FFF721FBC6E7A3
:205440001020C4E770B588B00C460646002506A9FFF7EDFA0028DCD106980121123005F0F9
:2054600090FE9CB12178062921D2DFE801F0200505160318801E80B2C01EE28880B20AB17E
:20548000A3681BB1824203D90C20C2E71020C0E7042904D0A08850B901E00620B9E70129E6
:2054A00013D0022905D004291CD005292AD00720AFE709208DF800006088ADF80800E08860
:2054C000ADF80A00A068039023E00A208DF800006088ADF80800E088ADF80A00A0680A25ED
:2054E000039016E00B208DF800006088ADF80800A088ADF80A00E088ADF80C00A0680B25B6
:20550000049006E00C208DF8000060788DF808000C256A4629463046069BFFF7B1FA78E794
:2055200000B587B00D228DF80020ADF8081000236A461946FFF7A4FA49E700B587B071B1EA
:2055400002228DF800200A88ADF808204988ADF80A1000236A460621FFF792FA37E71020C9
:2055600035E770B586B0064601200D46ADF808108DF80000014600236A463046FFF780FAB2
:20558000040008D12946304601F006FB0021304601F020FB204606B070BDF8B51C46154601
:2055A0000E46069F0AF0BDFE2346FF1DBCB231462A4600940AF0B9FAF8BD30B41146DDE96C
:2055C00002423CB1032903D0002330BC04F013BC0123FAE71A8030BC704770B50C460546C5
:2055E000FFF72DFB2146284601F0E5FA2846BDE87040012101F0EEBA18B18178012938D175
:2056000001E010207047018842F60112881A914231D018DC42F60102A1EB020091422AD0EE
:205620000CDC41B3B1F5C05F25D06FF4C050081821D0A0F57060FF381BD11CE001281AD0B9
:2056400002280AD117E0B0F5807F14D008DC012811D002280FD003280DD0FF2809D10AE0DC
:20566000B0F5817F07D0A0F58070033803D0012801D0002070470F2070470A281FD008DC5F
:205680000A2818D2DFE800F0191B1F1F171F231D1F21102815D008DC0B2812D00C2810D0E5
:2056A0000D2816D00F2806D10DE011280BD084280BD087280FD003207047002070470520D5
:2056C0007047072070470F20704704207047062070470C20704743F20200704738B50C4687
:2056E000050041D06946FEF7D7FA002819D19DF80010607861F3020060706946681CFEF742
:20570000CBFA00280DD19DF80010607861F3C5006070A978C1F34101012903D0022905D044
:20572000072038BD217821F0200102E0217841F020012170410704D0A978C90861F386102C
:205740006070607810F0380F07D0A978090961F3C710607010F0380F02D16078400603D545
:20576000207840F040002070002038BD70B504460020088015466068FFF7B0FF002816D18E
:205780002089A189884211D860688078C0070AD0B1F5007F0AD840F20120B1FBF0F200FB3F
:2057A0001210288007E0B1F5FF7F01D90C2070BD01F201212980002070BD10B5047813780A
:2057C00064F3000313700478640864F3410313700478A40864F3820313700478E40864F3A0
:2057E000C30313700478240964F3041313700478640964F3451313700078800960F38613BE
:20580000137031B10878C10701D1800701D5012000E0002060F3C713137010BD42785307FA
:2058200002D002F0070306E012F0380F02D0C2F3C20300E001234A7863F302024A7040788D
:2058400010F0380F02D0C0F3C20005E0430702D000F0070000E0012060F3C5024A70704736
:205860002DE9F04F95B00D00824613D012220021284607F088FD4FF6FF7B05AA0121584669
:2058800007F049FB0024264637464FF420586FF4205972E0102015B0BDE8F08F9DF81E000B
:2058A00001280AD1BDF81C1041450BD011EB09000AD001280CD002280CD0042C0ED0052C79
:2058C0000FD10DE0012400E00224BDF81A6008E0032406E00424BDF81A7002E0052400E05A
:2058E0000624BDF81A10514547D12C74BEB34FF0000810AA4FF0070ACDE90282CDE900A8F7
:205900000DF13C091023CDF8109042463146584607F0D1FB08BBBDF83C002A46C0B210A9FD
:205920000CF064F9C8B9AE81CFB1CDE900A80DF1080C0AAE40468CE84102132300223946A2
:20594000584607F0B8FB40B9BDF83C00F11CC01EC0B22A1D0CF04AF910B103209BE70AE0E2
:20596000BDF82900E881062C05D19DF81E00A872BDF81C00288100208DE705A807F0D7FA88
:2059800000288BD0FFF779FE85E72DE9F0471C46DDE90978DDF8209015460E00824600D12E
:2059A000FFDF0CB1208818B1D5B11120BDE8F087022D01D0012100E0002106F1140006F0E4
:2059C00073F9A8F8000002463B462946504603F07EF9C9F8000008B9A41C3C600020E5E7B9
:2059E0001320E3E7F0B41446DDE904528DB1002314B1022C09D101E0012306E00D7CEE07F9
:205A000003D025F0010501230D742146F0BC04F0F2B91A80F0BC70472DE9FE4F91461A8868
:205A20001C468A468046FAB102AB494603F04FF9050019D04046A61C27880AF084FC324675
:205A4000072629463B4600960AF0A3F820882346CDE900504A4651464046FFF7C3FF002062
:205A600020800120BDE8FE8F0020FBE72DE9F04786B082460EA8904690E8B000894604AAB5
:205A800005A903A88DE807001E462A4621465046FFF77BFF039901B101213970002818D1C6
:205AA000FA4904F1140204AB0860039805998DE8070042464946504606F0A9FCA8B10928FA
:205AC00011D2DFE800F005080510100A0C0C0E00002006B06AE71120FBE70720F9E7082061
:205AE000F7E70D20F5E70320F3E7BDF810100398CDE9000133462A4621465046FFF772FF4E
:205B0000E6E72DE9F04389B01646DDE910870D4681461C461422002103A807F034FC0120B7
:205B200002218DF810108DF80C008DF81170ADF8146064B1A278D20709D08DF81600E08809
:205B4000ADF81A00A088ADF81800A068079008A80095CDE90110424603A948466B68FFF76B
:205B600085FF09B0BDE8F083F0B58BB000240646069407940727089405A80994019400970B
:205B80000294CDE903400D4610232246304607F092FA78B90AA806A9019400970294CDE985
:205BA0000310BDF8143000222946304607F021F8002801D0FFF761FD0BB0F0BD06F0B2BEA7
:205BC0002DE9FC410C468046002602F07FFA054620780D287ED2DFE800F0BC0713B325BD3F
:205BE00049496383AF959B00A848006820B1417841F010014170ADE0404602F099FAA9E058
:205C0000042140460AF05AFA070000D1FFDF07F11401404605F0DDFFA5BB13214046FCF764
:205C2000BFFD97E0042140460AF048FA070000D1FFDFE088ADF800000020B8819DF8000099
:205C4000010704D5C00602D5A088B88105E09DF8010040067ED5A088F88105B9FFDF2246AC
:205C60002946404601F0C0FC022673E0E188ADF800109DF8011009060FD5072803D0062820
:205C80000AD00AE024E0042140460AF017FA060000D1FFDFA088F0810226CDB9FFDF17E0B5
:205CA000042140460AF00AFA070000D1FFDF07F1140006F06EFE90F0010F02D1E079000655
:205CC00048D5387C022640F00200387405B9FFDF224600E03DE02946404601F085FC39E06C
:205CE000042140460AF0EAF9017C002D01F00206C1F340016171017C21F002010174E7D1F4
:205D0000FFDFE5E702260121404602F043FA21E0042140460AF0D2F905466068009020891D
:205D2000ADF8040001226946404602F054FA287C20F0020028740DE0002DC9D1FFDFC7E790
:205D4000022600214046FFF765FA002DC0D1FFDFBEE7FFDF3046BDE8FC813EB50C0009D090
:205D600001466B4601AA002007F02AFA20B1FFF784FC3EBD10203EBD00202080A0709DF873
:205D8000050002A900F00700FDF7A2FF50B99DF8080020709DF8050002A9C0F3C200FDF7E3
:205DA00097FF08B103203EBD9DF8080060709DF80500C109A07861F30410A0709DF805106B
:205DC000890961F3C300A0709DF80410890601D5022100E0012161F342009DF8001061F348
:205DE0000000A07000203EBD70B5144606460D4651EA040005D075B10846FBF760FA78B955
:205E000001E0072070BD2946304607F040FA10B1BDE8704031E454B12046FBF750FA08B1AC
:205E2000102070BD21463046BDE8704095E7002070BD2DE9FC5F0C46904605460027017886
:205E40000822007A3E46B2EB111F7DD104F10A0100910A31821E4FF0020A04F1080B0191AE
:205E6000092A72D2DFE802F0EDE005F528287BAACE00688804210AF021F9060000D1FFDF0A
:205E8000B08928B152270726C3E000003802002051271026002C7DD06888A0800120A071E4
:205EA000A88900220099FFF79FFF002873D1A8892081288AE081D1E0B5F81290072824D1ED
:205EC000E87B000621D5512709F1140086B2002CE1D0A88900220099FFF786FF00285AD10E
:205EE0006888A08084F806A0A88920810120A073288A2082A4F81290A88A009068884B4695
:205F0000A969019A01F04CFBA8E0502709F1120086B2002C3ED0A88900225946FFF764FFD4
:205F2000002838D16888A080A889E080287A072813D002202073288AE081E87BC009607314
:205F4000A4F81090A88A01E085E082E0009068884B4604F11202A969D4E70120EAE7B5F8A5
:205F60001290512709F1140086B2002C66D0688804210AF0A3F883466888A080A889002289
:205F80000099FFF731FF00286ED184F806A0A889208101E052E067E00420A073288A208202
:205FA000A4F81290A88A009068884B46A969019A01F0F6FAA989ABF80E104FE06888FBF7CE
:205FC000BDFB0746688804210AF078F8064607B9FFDF06B9FFDF687BC00702D05127142688
:205FE00001E0502712264CB36888A080502F06D084F806A0287B594601F0E2FA2EE0287BCB
:20600000A11DF9E7FE49A8894989814205D1542706269CB16888A08020E053270BE06888A6
:20602000A080A889E08019E0688804210AF046F800B9FFDF55270826002CF0D1A8F800603B
:2060400011E056270726002CF8D06888A080002013E0FFDF02E0012808D0FFDFA8F80060EF
:206060000CB1278066800020BDE8FC9F57270726002CE3D06888A080687AA071EEE7401DB7
:2060800020F0030009B14143091D01EB4000704713B5DB4A00201071009848B100246846B5
:2060A00009F03BFE002C02D1D64A009911601CBD01240020F4E770B50D461446064686B038
:2060C0005C220021284607F05EF904B9FFDFA0786874A2782188284601F09DFA0020A881D4
:2060E000E881228805F11401304605F056FD6A460121304606F00FFF1AE000BF9DF8030027
:20610000000715D5BDF806103046FFF72DFD9DF80300BDF8061040F010008DF80300BDF84D
:206120000300ADF81400FF233046059A07F077F8684606F0FCFE0028E0D006B070BD10B5E8
:206140000C4601F1140005F060FD0146627C2046BDE8104001F094BA30B50446A84891B076
:206160004FF6FF75C18905AA284606F0D4FE30E09DF81E00A0422AD001282AD1BDF81C00A3
:20618000B0F5205F03D042F60101884221D1002002AB0AAA0CA9019083E807000720009022
:2061A000BDF81A1010230022284606F084FF38B9BDF828000BAAC0B20CA90BF017FD10B14A
:2061C000032011B030BD9DF82E00A04201D10020F7E705A806F0ABFE0028C9D00520F0E770
:2061E00070B50546042109F069FF040000D1FFDF04F114010C46284605F0EBFC214628467B
:20620000BDE8704005F0ECBC70B58AB00C460646FBF794FA050014D02878222827D30CB185
:20622000A08890B101208DF80C0003208DF8100000208DF8110054B1A088ADF81800206863
:2062400007E043F202000AB070BD0920FBE7ADF8180005900421304609F030FF040000D144
:20626000FFDF04F1140005F0E6FC000701D40820E9E701F02BFF60B108A802210094CDE943
:20628000011095F8232003A930466368FFF7EEFBD9E71120D7E72DE9F04FB2F802A0834638
:2062A00089B0154689465046FBF748FA07460421504609F003FF0026044605964FF002085A
:2062C0000696ADF81C6007B9FFDF04B9FFDF4146504603F0DAFE50B907AA06A905A88DE855
:2062E00007004246214650466368FFF74EFB444807AB0660DDE9051204F11400CDF8009029
:20630000CDE90320CDE9013197F82320594650466B6805F0D9FC06000AD0022E04D0032E03
:2063200014D0042E00D0FFDF09B03046BDE8F08FBDF81C000028F7D00599CDE9001042469A
:20634000214650466368FFF74DFBEDE7687840F008006870E8E72DE9F04F99B004464FF07D
:2063600000082748ADF81C80ADF82080ADF82480A0F80880ADF81480ADF81880ADF82C80F0
:20638000ADF82880007916460D464746012808D0022806D0032804D0042802D0082019B00C
:2063A000C4E72046FAF747FF70BB2846FAF743FF50BB6068FAF78CFF30BB606848B16089E5
:2063C0002189884202D8B1F5007F01D90C20E6E780460EAA06A92846FFF7C8F90028DED14E
:2063E00068688078C0F34100022808D19DF8190010F0380F03D02869FAF761FF20B904E077
:20640000380200201400002022E005A92069FFF765F90028C3D1206948B1607880079DF82F
:20642000150000F0380001D5F0B300E0E0BB9DF8140080060ED59DF8150010F0380F03D055
:206440006068FAF73CFF18B96068FAF741FF08B11020A4E70AA96069FFF740F900289ED1C8
:20646000606940B19DF8290000F0070101293CD110F0380F39D00BA9A069FFF72FF9002822
:206480008DD19DF8280080062FD49DF82C0080062BD4A06950B19DF82D0000F00701012924
:2064A00023D110F0380F00E01FE01ED0E06818B10078D0B11C2818D20FAA611C2046FFF70A
:2064C0007CF90121384661F30F2082468DF85210B94642F603000F46ADF850000DF13F02B2
:2064E00018A928680BF0A1FB08B1072057E79DF8600015A9CDF80090C01CCDE9019100F07A
:20650000FF0B00230BF20122514614A806F02EFCF0BBBDF854000C90FE482A89296900924E
:20652000CDE901106B89BDF838202868069906F01DFC01007ED120784FF0020AC10601D486
:2065400080062BD5CDF80C90606950B90AA906A8FFF764F99DF8290020F00700401C8DF818
:2065600029009DF8280008A940F0C8008DF828008DF8527042F60210ADF8500003AACDF8E7
:2065800000A0CDE90121002340F2032214A800E01EE00A9906F0EAFB01004BD1DD484D461C
:2065A00008385B460089ADF83D000FA8CDE90290CDF80490CDF810904FF007090022CDF89C
:2065C0000090BDF854104FF6FF7006F012FB10B1FFF753F8E3E69DF83C00000624D5294651
:2065E000012060F30F218DF852704FF424500395ADF8500062789DF80C00002362F3000079
:206600008DF80C006278CDF800A0520862F341008DF80C0003AACDE9012540F2032214A88D
:2066200006F0A4FB010005D1606888B32069A8B905A900E084E006A8FFF7F0F86078800724
:2066400006D49DF8150020F038008DF8150005E09DF8140040F040008DF814008DF85270F6
:2066600042F60110ADF85000208940F20121B0FBF1F201FB1202606809ABCDF80080CDE9CA
:206680000103002314A8059906F070FB010057D12078C00728D00395A06950B90BA906A88C
:2066A000FFF7BCF89DF82D0020F00700401C8DF82D009DF82C008DF8527040F040008DF84C
:2066C0002C0042F60310ADF8500007A903AACDF800A0CDE90121002340F2032214A80B99DA
:2066E00006F044FB01002BD1E06868B32946012060F30F218DF8527042F60410ADF850006A
:20670000E068002302788DF8582040788DF85900E06816AA4088ADF85A00E06800798DF8EC
:206720005C00E068C088ADF85D00CDF80090CDE901254FF4027214A806F018FB010003D0EA
:206740000C9800F0C9FF2AE6724803210838017156B100893080BDF824007080BDF820005F
:20676000B080BDF81C00F080002018E670B501258AB016460B46012802D0022816D104E068
:206780008DF80E504FF4205003E08DF80E5042F60100ADF80C005BB10024601C60F30F2481
:2067A00004AA08A918460BF040FA18B107204AE5102048E504A99DF820205648CDE9002174
:2067C000801E02900023214603A802F2012206F0CDFA10B1FEF751FF35E54E4808380EB1CB
:2067E000C1883180057100202DE5F0B593B0074601268DF83E6041F60100ADF83C0012AAA3
:206800000FA93046FFF7B2FF002849D1414C0025083CEFB31C22002102A806F0B4FD9DF884
:2068200008008DF83E6040F020008DF8080042F60520ADF83C000E959DF83A00119520F0EA
:206840000600801C8DF83A009DF838006A4620F0FF008DF838009DF8390009A920F0FF00FF
:206860008DF839000420ADF82C00ADF830000EA80A9011A80D900FA80990ADF82E5002A8CD
:20688000FFF769FD00280BD1BDF80000608100E008E0BDF80400A081401CE08125710020ED
:2068A00013B0F0BD6581A581BDF84800F4E72DE9F74F1849A0B00024083917940A79A146FD
:2068C000012A04D0022A02D0082023B02EE5CA88824201D00620F8E721988A46824201D1A2
:2068E0000720F2E70120214660F30F21ADF848004FF6FF780691ADF84A808DF86E0042F6B3
:20690000020B8DF872401CA9ADF86CB0ADF87040139101E040020020ADF8508012A806F04C
:2069200035FB00252E462F460DAB072212A9404606F02FFB78B10A285DD195B38EB3ADF820
:206940006450ADF866609DF85E008DF8144019AC012864D06BE09DF83A001FB3012859D1EB
:20696000BDF8381059451FD118A809A901940294CDE9031007200090BDF83610102300221F
:20698000404606F098FBB0BBBDF86000042801D006284AD1BDF82410219881423AD10F2083
:2069A00093E73AE0012835D1BDF83800B0F5205F03D042F6010188422CD1BAF80600BDF8C2
:2069C0003610884201D1012700E0002705B19EB1219881421ED118A809AA01940294CDE9E2
:2069E0000320072000900D4610230022404606F062FB00B902E02DE04E460BE0BDF8600000
:206A0000022801D0102810D1C0B217AA09A90BF0EDF850B9BDF8369086E7052055E705A99D
:206A200017A8221D0BF001F908B103204DE79DF814000023001DC2B28DF8142022980092F1
:206A4000CDE901401BA8069906F090F910B902228AF80420FEF711FE37E710B50B46401E35
:206A600088B084B205AA00211846FEF7A6FE00200DF1080C06AA05A901908CE8070007201E
:206A800000900123002221464FF6FF7006F0B1F80446BDF81800012800D0FFDF2046FEF71D
:206AA000ECFD08B010BDF0B5F74F044687B038790E46032804D0042802D0082007B0F0BD6E
:206AC00004AA03A92046FEF751FE0500F6D160688078C0F3410002280AD19DF80D0010F08B
:206AE000380F05D02069FAF7EAFB08B11020E5E7208905AA21698DE807006389BDF8102037
:206B00002068039906F032F910B1FEF7B6FDD5E716B1BDF814003080042038712846CDE7DC
:206B2000F8B50C0006460CD001464FF6FF7500236A46284606F044FB28B100BFFEF79DFDD7
:206B4000F8BD1020F8BD69462046FEF7C7FD0028F8D1A078314600F001032846009A06F05B
:206B60005EFBEBE730B587B0144600220DF1080C05AD01928CE82C00072200920A46014609
:206B800023884FF6FF7006F034F8BDF814102180FEF773FD07B030BD70B50D46042109F05B
:206BA0008DFA040000D1FFDF294604F11400BDE8704005F039B870B50D46042109F07EFADA
:206BC000040000D1FFDF294604F11400BDE8704005F04DB870B50D46042109F06FFA040038
:206BE00000D1FFDF294604F11400BDE8704005F065B870B50546042109F060FA040000D14A
:206C0000FFDF214628462368BDE870400122FEF703BF70B50646042109F050FA040000D159
:206C2000FFDF04F1140004F0F0FF401D20F0030511E0011D00880022431821463046FEF72F
:206C4000EBFE00280BD0607CABB2684382B2A068011D09F002F9A06841880029E9D170BD35
:206C600070B50546042109F029FA040000D1FFDF214628466368BDE870400222FEF7CCBE18
:206C800070B50E46054601F021FA040000D1FFDF0120207266726580207820F00F00001D2D
:206CA00020F0F00040302070BDE8704001F012BA10B50446012900D0FFDF2046BDE8104080
:206CC0000121FEF7A7BA2DE9F04F97B04FF0000A0C008346ADF814A0D04619D0E06830B101
:206CE000A068A8B10188ADF81410A0F800A05846FAF724FD070043F2020961D03878222887
:206D00005CD30421584609F0D9F9050005D103E0102017B0BDE8F08FFFDF05F1140004F001
:206D200074FF401D20F00306A078012803D0022801D00720EDE7218807AA584606F0EBF88F
:206D400030BB07A806F0F3F810BB07A806F0EFF848B99DF82600012805D1BDF82400A0F538
:206D60002451023902D04FF45050D2E7E068B0B1CDE902A00720009005AACDF804A004928F
:206D8000A2882188BDF81430584605F032FF10B1FEF773FCBDE7A168BDF8140008809DF8AB
:206DA0001F00C00602D543F20140B2E70B9838B1A1780078012905D080071AD40820A8E7C0
:206DC0004846A6E7C007F9D002208DF83C00A8684FF00009A0B1697C4288714391420FD95E
:206DE0008AB2B3B2011D08F0EEFF8046A0F800A006E003208DF83C00D5F800804FF0010991
:206E00009DF8200010F0380F00D1FFDF9DF820001E49C0F3C200084497F8231010F8010C13
